:020000040800F2
:10000000D00B002091020008711C0008711A000832
:100010006D1C0008C9040008292500080000000024
:10002000000000000000000000000000791C000833
:10003000CD04000800000000751C00087D1C0008AD
:10004000AB020008AB020008AB020008AB020008DC
:10005000AB020008AB020008AB020008AB020008CC
:10006000AB020008AB02000815050008AB0200084F
:10007000AB020008AB020008AB020008AB020008AC
:10008000AB020008AB020008AB020008AB0200089C
:10009000AB020008AB020008AB0200087D050008B7
:1000A000AB020008AB020008AB020008AB0200087C
:1000B000AB020008AB020008AB020008AB0200086C
:1000C000AB020008AB020008AB020008AB0200085C
:1000D000AB020008AB020008AB020008AB0200084C
:1000E000D1040008AB020008AB020008AB02000814
:1000F000AB020008AB020008AB020008AB0200082C
:10010000AB020008AB020008AB020008AB0200081B
:10011000AB020008AB020008AB020008AB0200080B
:10012000AB020008AB020008AB020008AB020008FB
:10013000AB0200080000000000000000AB02000855
:10014000AB020008AB020008AB020008AB020008DB
:10015000AB020008AB020008AB020008AB020008CB
:10016000AB020008AB020008AB020008AB020008BB
:10017000AB020008AB020008AB0200080000000060
:1001800000000000AB0200080000000000000000BA
:10019000AB0200080000000000000000AB020008F5
:1001A000000000000000000000000000AB0200089A
:1001B000AB020008AB020008AB020008AB0200086B
:1001C000AB02000800F002F800F052F814A696E81E
:1001D000000CB244B344DA4501D100F049F8BAE862
:1001E0000F000FA696E83000A5EB040504EB060708
:1001F000AAEB0704A7F101074FEA15154FEA3414DB
:10020000A4F10104AC4201D300F032F813F0010F65
:1002100018BFFB1A43F0010300F001F8DBE71847B1
:100220000424000024240000103A24BF78C878C1B8
:10023000FAD8520724BF30C830C144BF04680C60EC
:1002400070470000704700000023002400250026AE
:10025000103A28BF78C1FBD8520728BF30C148BF29
:100260000B6070471FB502F0C4F91FBD10B510BD7B
:1002700000F0EFF81146FFF7F5FF02F057F900F034
:100280000DF903B4FFF7F2FF03BC00F015F900000D
:100290000948804709480047FEE7FEE7FEE7FEE71A
:1002A000FEE7FEE7FEE7FEE7FEE7FEE70448054956
:1002B000054A064B70470000351D0008C5010008BF
:1002C000D0050020D00B0020D0070020D007002050
:1002D00053EA020C00F069802DE9F04B4FF0000664
:1002E000002B1FBFB3FA83F503FA05F424FA05F6D1
:1002F0005E4012BF1643B2FA82F502FA05F4C5F168
:1003000020051EBF22FA05FC44EA0C04203556EAFB
:10031000044C4FEA144418BF641C4FF000084FF01F
:100320000009904271EB030C39D3002919BFB1FACF
:1003300081F701FA07F6B0FA80F700FA07F6C7F17D
:1003400020071EBF20FA07FC46EA0C062037B6FB42
:10035000F4FCA7EB0507103F07F01F0BCBF12006BD
:100360002CFA06F60CFA0BFB44BFB3460026202FEE
:10037000A4BF5E464FF0000B5BEA060C08BF4FF0CF
:10038000010B19EB0B0948EB0608ABFB027C06FBE3
:1003900002CC0BFB03CCC01B71EB0C01C1E70B467D
:1003A000024641464846BDE8F08B13B5084318BFE6
:1003B0004FF0FF300146AFF30080BDE81C407047AE
:1003C00010B5431C02E010F8011B71B18107FAD18E
:1003D0004FF0013202C88C1A8C4314EAC211F9D0D2
:1003E000C01A0A0603D0C01E10BDC01A10BD0A04F0
:1003F00001D0801E10BD0902FCD0401E10BD4FF080
:10040000000200B5134694469646203922BFA0E864
:100410000C50A0E80C50B1F12001BFF4F7AF090770
:1004200028BFA0E80C5048BF0CC05DF804EB890061
:1004300028BF40F8042B08BF704748BF20F8022BA4
:1004400011F0804F18BF00F8012B704770477047BC
:100450007047754600F02CF8AE46050069465346D5
:1004600020F00700854618B020B5FFF71FFFBDE854
:1004700020404FF000064FF000074FF000084FF00B
:10048000000BAC46ACE8C009ACE8C009ACE8C00958
:10049000ACE8C00921F007018D46704710B504464D
:1004A000AFF300802046BDE81040FFF7EABE000031
:1004B000004870471000002001491820ABBEFEE73D
:1004C0002600020070470000FEE7000070470000B1
:1004D000B0B500F0C3F943F61441C4F20101096854
:1004E000890411D540F2C454C2F200042168411AB3
:1004F0001F2909D340F20041C4F202010546084613
:10050000012100F09DF925604FF40050BDE8B04096
:1005100000F0BAB810B543F61444C4F201042068E0
:10052000C00607D500F09AF940F2C051C2F20001AE
:100530000A782AB11020BDE8104000F0A5B800BF2D
:1005400040F2C852C2F200021368C31A972BF1D3CB
:1005500040F20C0CC2F2000C00238CF80030012396
:100560000B7040F20D01C2F200010B701060102000
:1005700020601020BDE8104000F086B810B543F6AA
:100580001444C4F201042068800619D4206840068F
:100590002AD4206800064FD500F060F940F2C0511F
:1005A000C2F200010978002946D140F2C851C2F2D6
:1005B00000010968411A97293ED38021032225E0D2
:1005C00000F04CF940F2C051C2F20001097899BB29
:1005D00040F2C851C2F200010968411A96292BD98C
:1005E0002021012212E000BF00F038F940F2C05192
:1005F000C2F200010978F9B940F2C851C2F2000113
:100600000968411A962917D94021022240F20C03A9
:10061000C2F200031A7040F2C052C2F2000201237B
:10062000137040F20D02C2F20002137040F2C85281
:10063000C2F2000210602160202000F025F8402066
:1006400000F022F88020BDE8104000F01DB8000046
:10065000EFF3108072B600BFFEE70000B0B50446AD
:1006600000F0FCF8054640F20000C2F200000078FD
:10067000611C18BF044400BF00F0F0F8401BA0420A
:10068000FAD3B0BD7047000043F61441C4F2010133
:100690000A68024214BF08607047FFF7F3BF00000A
:1006A0002DE9F04F83B000F1200200F13E4741F602
:1006B0000005009207F1FF77C4F2020507224FEA16
:1006C000B726A84208BF062200254FF000084FF0C9
:1006D0000009062E38BF4FEAB72201920AE000BF98
:1006E00009F1010908F10208B9F1100F05F104053B
:1006F00000F0A2800F68012202FA09FE17EA0E0A32
:10070000EED0D1F804C003220CF003077E1E02FADB
:1007100008F4012E6FEA040B12D88468CE6804EA4C
:100720000B0406FA08F634438460446824EA0E0693
:10073000CCF3001404FA09F42643466004E000BF39
:10074000032F01D103271EE0C6688C6806EA0B065A
:1007500004FA08F42643022FC66014D16FF0030296
:10076000009E02EA590756F807C005F01C040F2244
:100770000B69A2402CEA0202A3401A43F251D1F8BD
:1007800004C00CF00307026807FA08F302EA0B0240
:100790001A431CF4403F0260A2D0002243F64403F7
:1007A0000292C4F202031A6843F6004442F4804203
:1007B0001A601A68C4F2010402F480420292029A9A
:1007C00029F003024FF6084C2244CFF6FF7C52F882
:1007D0000C3005F00C070F26BE40B343019E06FA0D
:1007E00007F73B4342F80C30A2684B6842EA0A071D
:1007F00043F60C4CDE0258BF22EA0A07A760C4F297
:10080000010CDCF800209E0242EA0A0758BF22EAE7
:100810000A07CCF8007062689E0342EA0A0758BFD4
:1008200022EA0A0767602268DB0342EA0A0758BF28
:1008300022EA0A07276053E703B0BDE8F08F000003
:10084000426902EA0103914341EA03418161704731
:10085000002A08BF090481617047000040F2CC50B3
:10086000C2F200000068704740F2000040F2CC5134
:10087000C2F20000C2F2000100780A681044086069
:100880007047000080B543F60040C4F202000168E2
:1008900041F400710160016841F480610160016808
:1008A00041F480710160032000F086F8002000F020
:1008B00005F800F027F8002080BD000070B540F278
:1008C0000006C2F2000640F208013278C2F20001CE
:1008D0004FF47A730968B3FBF2F20446B1FBF2F10C
:1008E000084600F001FF0F2C4FF0010508D838B979
:1008F0004FF0FF3021460022002500F031F87460EF
:10090000284670BD82B0002043F640010190C4F239
:1009100002014A6842F480424A604A6802F4804216
:100920000192019A0090086840F0805008600868C1
:1009300000F080500090009802B07047002848BF37
:10094000704700F01F01012202FA01F11C2202EAA5
:10095000D0004EF20012CEF200028150704700002B
:1009600010B54EF60C5CCEF2000CDCF80030C3F390
:10097000022E8EF00704042C28BF0424BEF10303CA
:100980004FF0FF3E0EFA04F438BF0023A143994014
:100990000EFA03F39A43114300F00F0200F1604393
:1009A0000901043A03F564436244002848BF02F198
:1009B0000C03197010BD00004EF60C51CEF2000170
:1009C0000A684FF6FF031A4060F30A2242F0806083
:1009D00040F0FD700860704701220168C0F80025F2
:1009E000002280F8F424886940F000608861486D36
:1009F00040F0805040F0030200204A65704700003C
:100A0000002804BF012070472DE9F04F8BB08246CB
:100A1000056890F8BD0428B900208AF8BC04504647
:100A200000F0D0F803208AF8BD04E86BC0055CBF75
:100A30000020CAF81000DAF8000001F03BFDDAF8F7
:100A400000000AF120090A90DAE90B64DAF83400B0
:100A50000AF1040E99E880039EE82E58CDE908407B
:100A600004A880E880030A988DE82058079601F0D2
:100A7000DFF9002840F08880DAF800000021002526
:100A800001F020FDDAF8041000295CD00AF13C00E6
:100A90004FF0010C0022002302EBC20200EB8207A0
:100AA00000F82230DAB201333A81DAB2914287F8A3
:100AB00001C03D71C7E90355BD61EDD80AF51F704E
:100AC00000220025002300BF05EBC50743F0010508
:100AD000ECB200EB8706A142727000F82730327149
:100AE000C6E90322B2612ED904EBC40700F82750EF
:100AF00043F00205ECB200EB8706A142727032713E
:100B0000C6E90322B2611ED904EBC40700F82750DE
:100B100043F00305ECB200EB8706A142727032711C
:100B2000C6E90322B2610ED904EBC407043300F80E
:100B30002750DDB200EB8706A94272703271C6E918
:100B40000322B261C0D8DAF80800DAF800200A906F
:100B5000DAE90C40DAE905650AF11C0EDAE9033737
:100B60009EE80058DAE90A89CDE9084002A880E841
:100B7000205810460A9ACDE90076CDF81880CDF8B5
:100B80001C9001F055FA38B102208AF8BD0401200A
:100B90000BB0BDE8F08F00BF00208AF838000120BC
:100BA0008AF8BD04DAF82400012802D15046FFF784
:100BB00013FFDAF8000001F02BFA00200BB0BDE8BB
:100BC000F08F0000F0B59DB0044600201C90CDE9E8
:100BD0001A00CDE9180001A804305821FFF70FFCD6
:100BE0002068B0F1A04F01D01DB0F0BD4FF480706F
:100BF000019001A800F03EF8002818BFFFF728FD7B
:100C0000002743F630060097C4F20206306800243D
:100C100040F0010030603068C4F2020400F00100CE
:100C2000009000984FF4E85018900220CDE9190781
:100C300003201B900A2018AD1C9020462946FFF780
:100C40002FFD4FF40070CDE91807204629461A976A
:100C5000FFF726FD706840F08000706000977069B3
:100C600040F480407061706900F48040009000980A
:100C70001DB0F0BD2DE9F04381B00446006843F695
:100C80008C06C107C4F2020604D14FF000098107A7
:100C90000CD415E03168A26B21F0C06111433160C2
:100CA000B2FA82F14FEA5119810709D53168E26B36
:100CB00021F0C05111433160002A08BF4FF00109F3
:100CC000410705D44FF00008010712D420E000BF0F
:100CD0003168226B21F4401111433160B2FA82F184
:100CE0004FEA5118B2F5801F08BF4FF00109010704
:100CF0000ED53168626B21F440011143B2F5800FCB
:100D0000316008BF4FF00109002A08BF4FF0010809
:100D100081065AD50020009056F84C0C47F2000787
:100D200040F0805046F84C0C56F84C0CC4F20007CA
:100D300000F0805000900098386840F4807038606F
:100D4000FFF78CFD054600BF3868C00506D4FFF7E5
:100D500085FD401B0228F7D990E100BF56F81C0C16
:100D600010F4407017D0216C01F44071884212D009
:100D700056F81C0C40F64061C4F24721012220F4D1
:100D800040700A6000220A6046F81C0C56F81C0CE1
:100D9000C00740F07B812068216C56F8842C4FF608
:100DA000FF4701F4407322F4F812C0F6FF770F40BA
:100DB000B3F5407F08BF3A4346F8842C56F81C2C04
:100DC0006FF31F31114346F81C1CC10610D40106F5
:100DD00019D441061FD4C10525D4810530D441055D
:100DE00036D4B9F1010F18BFB0F5006F3CD062E006
:100DF00094F8580040F64061C4F24721C1F8A003BE
:100E000020680106E5D5B168E26C21F44001114388
:100E1000B1604106DFD5B168A26C21F08061114359
:100E2000B160C105D9D5B168626D21F0006111438F
:100E3000B160B2F1006F08BF4FF001088105CED557
:100E4000B168626C21F080511143B1604105C8D591
:100E5000B268216D22F000520A43B0F5006FB26013
:100E600018BFB1F1005F23D140F26809C4F24729ED
:100E70000020C9F80000FFF7F1FC054656F88C0C7D
:100E8000000105D5FFF7EAFC401B0228F6D9F5E082
:100E90002068C10702D0A16B00296FD0810702D55D
:100EA000E16B00296AD0410700F17D807FE000BF3F
:100EB000B9F1010FD8D0B8F1000F4FF0000000F0E9
:100EC000DE806827C4F24727B860FFF7C7FC0546F5
:100ED00056F88C0C800005D5FFF7C0FC401B02289B
:100EE000F6D9CBE02068410701D5216B19B1010784
:100EF0001AD5616BC1B956F8041CD4E9062301F474
:100F00004031656A114341EA831141EA0561D4F831
:100F10002CC046F8041C31686FF0FF0221F4F85130
:100F200002EB0C2211433160C00516D5606DB0F1A3
:100F3000006F12D156F8040C226AD4E9061300F0AF
:100F40007060D2034FF6FF75AA430843A2F58032C2
:100F500040EA8310104346F8040C0120B860FFF704
:100F60007DFC044656F88C0C800000F18B80FFF766
:100F700075FC001B0328F5D380E000BF56F8081C61
:100F800056F8082CD4E9013501F4403102F07062C2
:100F900019436769114341EA851141EA077146F82F
:100FA000081C410703D5216BB1F5801F05D001074F
:100FB0001FD5616BB1F5800F1BD156F8081C56F890
:100FC000082CD4E9013701F4403102F0E042194322
:100FD0002569114341EA871141EA0561D4F828C027
:100FE00046F8081C3168ACF1010221F01F011143E1
:100FF000316041051FD5216DB1F1005F1BD1271D67
:1010000056F808CC56F8082CA8CFFF034FF6FF710E
:1010100027EA01014FF0C06702F0E04207EA4C27DF
:1010200007F100771A433A43A1F5803142EA85126D
:10103000114346F8081C000510D5271D8FCF40EA44
:101040008110D1034FF6FF729143A1F5803140EA40
:101050000360084340EA077046F8080C0120C9F80D
:101060000000FFF7FBFB054656F88C0C00013FF52E
:1010700022AFFFF7F3FB401B0228F5D9032001B094
:10108000BDE8F083002001B0BDE8F083FFF7E6FB88
:10109000054641F2883700BF56F81C0C80073FF523
:1010A0007AAEFFF7DBFB401BB8424FF00300F3D9E9
:1010B000E5E70000002804BF012070472DE9F0415A
:1010C00043F60808C4F202080446D8F8F8030D46AF
:1010D00000F00F00884207D288F8F853D8F8F803D8
:1010E00000F00F00A84277D12068810717D541078B
:1010F00005D5D8F8001041F4E051C8F800100107F8
:1011000005D5D8F8001041F46041C8F80010D8F8AF
:101110000010A26821F0F0011143C8F80010C007C8
:1011200040D1D8F8F80300F00F00A84207D988F89A
:10113000F853D8F8F80300F00F00A8424CD120680B
:10114000410707D5D8F80010E26821F4E0511143B7
:10115000C8F80010000708D5D8F80000216920F46D
:10116000604040EAC100C8F8000000F07DF8D8F8FF
:10117000001042F20C62C1F30311C0F60002515C90
:1011800040F2080220FA01F140F20400C2F200002D
:101190000068C2F200021160FFF790FB0020BDE87A
:1011A000F08100BF6068811E022907D258F8081C30
:1011B00089015CBF0120BDE8F08111E0012807D161
:1011C00058F8081C89035CBF0120BDE8F08107E0E6
:1011D00058F8081C890703D40120BDE8F08100BF3E
:1011E000D8F8001021F003010843C8F80000FFF709
:1011F00035FB064641F28837D8F80000616800F0F8
:101200000C00B0EB810F8CD0FFF728FB801BB8429D
:10121000F2D90320BDE8F08140F2080043F608014E
:10122000C2F20000C4F202010068096842F21C62C6
:10123000C1F38221C0F60002515CC8407047000033
:1012400040F2080043F60801C2F20000C4F20201B5
:101250000068096842F21C62C1F34231C0F6000224
:10126000515CC8407047000010B543F60404C4F256
:1012700002046068C0F3810142F20040C0F2F40051
:10128000DFE801F04202081841F20020C0F27A00C3
:1012900010BD00BF216801F03F02216823684902A8
:1012A000C3F3881116D4A1FB00010023FFF710F847
:1012B00017E000BF216801F03F022168236849025E
:1012C000C3F3881114D4A1FB00010023FFF700F839
:1012D00015E000BF41F20020C0F27A004843B0FBA5
:1012E000F2F021680222C1F3014102EB410109E061
:1012F00041F20020C0F27A004843B0FBF2F02168CE
:10130000C1F30271B0FBF1F010BD0000002804BF72
:10131000012070472DE9F04182B00446007843F681
:101320000006C007C4F202060CD0B06800F00C0042
:10133000042840F089803068800303D56068002865
:1013400000F050812078800723D5B06810F00C0F92
:1013500011D0B06800F00C00082802D1706840027B
:1013600009D5B06800F00C000C2840F09F80706830
:10137000400200F19B803068800703D5E0680128B7
:1013800040F030813068216920F0F80040EAC10067
:1013900030602078000713D4207840072AD4A5694C
:1013A000002D00F01A81B06800F00C00082840F011
:1013B000AB80012D40F0E880012002B0BDE8F08153
:1013C0006069002840F20000C4F2472000F08880E5
:1013D0000121C0F8801EFFF741FA0546706F8007B3
:1013E000DAD4FFF73BFA401B0228F7D9032002B0FA
:1013F000BDE8F081306C5FEAC0080AD4002001909B
:10140000306C40F080503064306C00F080500190BF
:10141000019847F20007C4F200073868C00537D4C6
:10142000386840F480703860FFF718FA054600BF4E
:101430003868C0052CD4FFF711FA401B0228F7D9F1
:10144000032002B0BDE8F081B06800F00C0008286D
:1014500003D1706840023FF56EAFB06800F00C0039
:101460000C2803D1706840023FF565AF61683068B1
:10147000B1F5803F07D0B1F5A02F40F0CB8040F40C
:1014800080203060306840F480303060CBE000BFB6
:10149000A168306F012905D0052957D140F004001B
:1014A0003067306F40F00100306759E0E068002895
:1014B00000F09C800020C4F2472001210160FFF76A
:1014C000CDF90546306880073FF55CAFFFF7C6F9F8
:1014D000401B02284FF00300F4D902B0BDE8F081B0
:1014E0000021C0F8801EFFF7B9F90546706F80072C
:1014F0007FF552AFFFF7B2F9401B0228F6D903205F
:1015000002B0BDE8F08100BF0027C4F247270020E9
:101510003866FFF7A3F9022D05460BD1306880012C
:1015200040F19280FFF79AF9401B02284FF0030028
:10153000F4D9D2E7306880014FD5FFF78FF9401B0F
:1015400002284FF00300F5D9C7E700BF20F00100E3
:101550003067306F002920F00400306700F0988079
:10156000FFF77CF9054641F2883700BF306F8007EE
:1015700000F1A080FFF772F9401BB842F6D90320B2
:1015800002B0BDE8F08100BF7068E16900F480023C
:101590008A4227D1216A00F03F028A4222D147F6CF
:1015A000C071626A0140B1EB821F1BD1A16A4FF684
:1015B000FF73C903994300F44032A1F580318A4298
:1015C00010D1E16A00F07062B2EB016F0AD1216BB9
:1015D00000F0E040B0EB017F04D1002002B0BDE894
:1015E000F08100BF012002B0BDE8F0810020C4F20C
:1015F000472000210160FFF731F905463068800778
:101600007FF5C7AEFFF72AF9401B02284FF0030011
:10161000F4D962E720F4803030603068002920F48B
:101620008020306050D0FFF719F9054630688003FC
:101630003FF588AEFFF712F9401B6428F6D9032066
:1016400002B0BDE8F08100BF04F11C052FCD246B72
:10165000084340EA8210D9034FF6FF729143A1F587
:10166000803140EA0560084340EA04707060012060
:101670003866FFF7F3F8044630688001ADD4FFF711
:10168000EDF8001B02284FF00300F5D925E700BF55
:10169000FFF7E4F8054641F2883700BF306F800756
:1016A00008D5FFF7DBF8401BB8424FF00300F5D92F
:1016B00013E700BFB8F1000F3FF571AE306C20F0BA
:1016C000805030646BE600BFFFF7C8F8054600BFE6
:1016D000306880037FF536AEFFF7C0F8401B642802
:1016E0004FF00300F4D9F8E6411E0020B0EB116F73
:1016F0001CBF012070474EF21002CEF20002516072
:101700004EF62351CEF20001F0230B7007219060BA
:1017100011607047002804BF0120704710B50446CF
:1017200090F83D0028B9002084F83C00204600F0E5
:1017300021F8242084F83D002068C16821F400517C
:10174000C160204600F000FB2068016921F490414F
:101750000161416921F02A014161C16841F40051F0
:10176000C16000202021206484F83D1084F83E10E0
:1017700010BD000080B586B044F600010068C4F2D8
:101780000001002288420592CDE9032202920192D3
:1017900002D006B080BD00BF43F630000092C4F214
:1017A0000200036943F480230361036903F4802387
:1017B0000093009B0092036843F0080303600068F5
:1017C00000F00800009000984FF440700190022053
:1017D000CDE90202032004900720059001F5E230D4
:1017E00001A9FEF75DFF06B080BD00002DE9F043C2
:1017F00081B0044690F83D0020280DD10F46002905
:101800004FF0010018BF002A02D101B0BDE8F083FB
:1018100094F83C00012803D1022001B0BDE8F08318
:10182000012084F83C000020206421201D4684F81B
:101830003D001646FFF712F8A684E684A168064626
:10184000B1F5805F03D12069002800F00D81B84612
:101850000027002084F83C00E18C2068002900F07B
:101860008F8005F101090CE0B8F1000F28D018F8BD
:10187000011B4160E18C0139E184E18C002900F019
:101880007F8001680906EFD4B9F1000F0AD0FDB1DD
:10189000FEF7E4FF801BA8421AD8206801680906F9
:1018A000F6D5E1E701680906DED4016809065CBFE8
:1018B00001685FEA0161D7D401680906F2D5D3E770
:1018C00037F8021B4FF000086FF35F21D1E700BF2C
:1018D000206850E8030F216820F4D07041E803022B
:1018E000BAB3206850E8030F216820F4D07041E8B3
:1018F000030272B3206850E8030F216820F4D0700F
:1019000041E803022AB3206850E8030F216820F45D
:10191000D07041E80302002ADAD11AE0206850E8CA
:10192000050F216820F0010041E80502DAB12068C6
:1019300050E8050F216820F0010041E8050292B14E
:10194000206850E8050F216820F0010041E80502F9
:101950004AB1206850E8050F216820F0010041E8F5
:101960000502002ADAD1202084F83D0084F83E00E8
:10197000002084F83C00032001B0BDE8F08300BFE4
:10198000016849060FD4F5B1691C17D101684906F1
:1019900009D4016849065CBF01685FEA416102D46D
:1019A00001684906F2D5202084F83D00002001B0EE
:1019B000BDE8F083206800684006F4D4FEF74EFFCF
:1019C000801BA842F6D9206850E8030F216820F454
:1019D000D07041E80302E2B3206850E8030F2168A9
:1019E00020F4D07041E803029AB3206850E8030F56
:1019F000216820F4D07041E8030252B3206850E817
:101A0000030F216820F4D07041E80302002ADAD1E4
:101A10001FE000BF206850E8050F216820F001009A
:101A200041E80502002A9ED0206850E8050F216891
:101A300020F0010041E80502002A94D0206850E817
:101A4000050F216820F0010041E80502002A3FF45B
:101A50008AAF206850E8050F216820F0010041E8B6
:101A60000502002AD6D17EE74FF00008F1E600001B
:101A7000FEE700002DE9F04F87B0002443F6300068
:101A80000694CDE90444CDE902440194C4F2020075
:101A9000016840F6000841F0040101600168C4F2E9
:101AA000020801F004010191019901940168A8F56F
:101AB000806741F0800101600168002201F080012F
:101AC000019101990194016844F2810A41F00201F7
:101AD0000160016801F0020101910199019401681E
:101AE00041F008010160016801F0080101910199CC
:101AF0000194016841F040010160016801F040017A
:101B0000019101990194016841F0010101600068AF
:101B100044F2810100F00100019001983846FEF77F
:101B200097FE08F580552846402100224FF0400BD3
:101B3000FEF78EFE40464FF470610022FEF788FEED
:101B40004FF4005002AE02904FF4881940463146DF
:101B5000CDE90394FEF7A4FDCDF808A04FF0010AEB
:101B600038463146CDE903A40594FEF799FD284691
:101B70003146CDE902BACDE90444FEF791FD80205B
:101B8000CDE90204284631460494FEF789FD4FF45E
:101B90007060CDE9020A40463146CDE90444FEF7C3
:101BA0007FFDF020CDE902090220049008F5806055
:101BB0003146FEF775FD0A2000210022FEF7D0FE17
:101BC0000A20FEF7BBFE172000210022FEF7C8FE08
:101BD0001720FEF7B3FE282000210022FEF7C0FEEA
:101BE0002820FEF7ABFE07B0BDE8F08F80B540F2CD
:101BF0007C5044F60001C2F20000C4F20001002350
:101C00004FF00C0C4FF4164280E80E00C0E903338D
:101C1000C0E905C3C361FFF77DFD002808BF80BD93
:101C2000EFF3108072B600BFFEE7000080B540F20F
:101C30007000C2F200004FF0A0410622C0E900127D
:101C4000022100220123C0E90312C0E90613C0E902
:101C50000822C0E90B32FEF7D3FE002808BF80BD82
:101C6000EFF3108072B600BFFEE70000FEE7000051
:101C7000FEE700007047000070470000FEF7F4BD6B
:101C800070B594B007AC20463421FEF7B8FB0025B0
:101C900043F640000695CDE90455CDE9025501957E
:101CA000C4F202000168022641F080510160006820
:101CB00000F080500190019847F200000195C4F2B5
:101CC0000000016841F440410160006800F44040B8
:101CD00001900198012007904FF4A02008904FF444
:101CE00080000E9004200F90A820CDE91006072058
:101CF000CDE9120620460D96FFF708FB20B1EFF361
:101D0000108072B6FEE700BF0F20CDE902064FF447
:101D1000A05005904FF48050069002A8052104952C
:101D2000FFF7C8F920B1EFF3108072B6FEE700BFED
:101D300014B070BD4EF68850CEF20000016841F438
:101D40007001016070470000B0B50446006804F1FE
:101D500008030ECB0569194325F440552A43026157
:101D60006269E3691143C268194349F20C639A43FB
:101D70001143C1604169A26921F4407141F20043FD
:101D8000114340F48062C4F201039A42416103D1DD
:101D9000FFF756FA02E000BFFFF73EFAE1694FF69F
:101DA0009C7563681922C0F6FF75B1F5004FA0FB62
:101DB00002011FD15A00DB0FFEF78AFA48F21F51C9
:101DC000C5F2EB11A0FB01235A0905F1805302FB78
:101DD0000300322303EBC000A0FB01014FF4F870B5
:101DE00000EA111000EB0210C1F34211084421680F
:101DF0008860B0BD9A009B0FFEF76AFA48F21F5147
:101E0000C5F2EB11A0FB01235A0902FB05003223A6
:101E100003EB0010A0FB0101F02000EA511000EBE1
:101E20000210C1F34311084421688860B0BD00006E
:101E300082B00499DDF808C0012940F64051C0F293
:101E400003016FD1826B4FF6BF7322F4803282633D
:101E5000C268CFF6BD731A40C260C2680B9B22F401
:101E60004012012BC26003D1C26842F48012C260EA
:101E700000220092009A01320092009A8A4200F2F7
:101E8000A9800269002A1ED4009A01320092009AA9
:101E90008A4200F29F800269002A14D4009A01321B
:101EA0000092009A8A4200F295800269002A0AD4C0
:101EB000009A01320092009A8A4200F28B800269F5
:101EC000B2F1FF3FD6DC00220092026942F001022B
:101ED0000261009A01320092009A8A427AD802691D
:101EE000D2071AD0009A01320092009A8A4271D821
:101EF0000269D20711D0009A01320092009A8A42F8
:101F000068D80269D20708D0009A01320092009A7C
:101F10008A425FD80269D207DBD10021BCF1010FF0
:101F200072D169E0C268089B42F04002C2600022A0
:101F30000192019A01320192019A8A4250D80269B3
:101F4000002A1BD4019A01320192019A8A4247D891
:101F50000269002A12D4019A01320192019A8A423E
:101F60003ED80269002A09D4019A01320192019AED
:101F70008A4235D80269B2F1FF3FDADC00220192D1
:101F8000026942F001020261019A01320192019A52
:101F90008A4225D80269D2071AD0019A01320192E9
:101FA000019A8A421CD80269D20711D0019A0132E3
:101FB0000192019A8A4213D80269D20708D0019A85
:101FC00001320192019A8A420AD80269D207DBD112
:101FD000002106E00321BCF1010F15D10CE000BF88
:101FE0000321826B002B14BF22F4803242F4803232
:101FF0008263BCF1010F07D1826842F00602826061
:10200000826842F020028260084602B070470000F9
:102010000146D0F8000E20F00300C1F8000ED1F800
:10202000040840F002020020C1F8042870470000B4
:102030002DE9F04F83B0DDF84C800E9F0022B8F1FF
:10204000000F00F5006BC0F80421C0F80821C0F8AB
:102050000C21C0F81021C0F81421C0F81821C0F8D4
:102060001C21C0F82021C0F82421C0F82821C0F884
:102070002C21C0F83021C0F83421C0F83821C0F834
:102080003C2105D0866B46F40016866312E000BF43
:10209000D0F8046846F00206C0F80468866B26F49F
:1020A00000168663066846F040060660066846F03D
:1020B000800606600026C0F8006ED0F80068012F88
:1020C000C0F8006806D1DBF80070002B18BF47F09D
:1020D000010703E0DBF8003043F00307DDF83CE0E4
:1020E000DDF8309040F64055C0F203050023C0F8FB
:1020F00000780193019B01330193019BAB4249D8C6
:102100000369002B1BD4019B01330193019BAB425C
:1021100040D80369002B12D4019B01330193019B2A
:10212000AB4237D80369002B09D4019B01330193DB
:10213000019BAB422ED80369B3F1FF3FDADC0023E9
:1021400001934FF484630361019B01330193019B6D
:10215000AB421FD803699B061AD5019B013301933B
:10216000019BAB4216D803699B0611D5019B013335
:102170000193019BAB420DD803699B0608D5019BD7
:1021800001330193019BAB4204D803699B06DBD466
:10219000002400E0012400230293029B01330293F8
:1021A000029BAB4248D80369002B1BD4029B01332E
:1021B0000293029BAB423FD80369002B12D4029BCF
:1021C00001330293029BAB4236D80369002B09D43A
:1021D000029B01330293029BAB422DD80369B3F1FA
:1021E000FF3FDADC0023029310230361029B0133DB
:1021F0000293029BAB421FD80369DB061DD5029BED
:1022000001330293029BAB4216D80369DB0614D557
:10221000029B01330293029BAB420DD80369DB069C
:102220000BD5029B01330293029BAB4204D8036996
:10223000DB06DBD401E000BF01244FF0000A0029D7
:10224000CBF810A0CBF814A0CBF81CA000F00481B0
:102250000094D0F800394FF0006202EA13134FF6F1
:102260007F354E1EC0F80039C0F810A9C0F80859D3
:1022700076D08B1E032B06F0030905D22024B9F17A
:10228000000F42D16CE000BF26F0030700244FF09E
:10229000904E4FF67F384FF0000C00BF00EB0C0360
:1022A000D3F82059043F0EEAE575C3F82059C3F866
:1022B0003049C3F82889D3F840590CF1800C0EEA54
:1022C000E575C3F84059C3F85049C3F84889D3F8B5
:1022D00060590EEAE575C3F86059C3F87049C3F850
:1022E0006889D3F880590EEAE575C3F88059C3F8B8
:1022F0009049C3F88889D1D1DDF84C800CF12004D5
:102300004FF67F35B9F1000F2AD000F510631D5943
:102310004FF0904C0CEAE5751F191D514FF67F35B3
:1023200000244FF67F3EB9F1010F3C61C7F808E089
:1023300016D03B6AB9F1020F0CEAE3733B623C63CF
:10234000C7F828E00CD03B6C4FF0904505EAE373EA
:102350003B6400234FF67F353B654FF67F33BB640C
:10236000D0F8003BDDF83CE002EA1313C0F8003B74
:102370000023C0F8103BC0F8085BDDF83090009CEB
:10238000002E69D00239032906F0030C04D2202361
:10239000BCF1000F3BD15FE026F0030300244FF0B7
:1023A00090474FF67F3600214518D5F8202B043B87
:1023B00007EAE272C5F8202BC5F8304BC5F8286B48
:1023C000D5F8402B01F1800107EAE272C5F8402BF5
:1023D000C5F8504BC5F8486BD5F8602B07EAE27298
:1023E000C5F8602BC5F8704BC5F8686BD5F8802B25
:1023F00007EAE272C5F8802BC5F8904BC5F8886BE8
:10240000D2D1009C01F12003BCF1000F24D000F5D3
:102410003062D6584FF0904707EAE676D118D6508A
:1024200000264FF67F33BCF1010F0E618B6013D095
:102430000A6ABCF1020F07EAE2720A620E638B625B
:102440000AD00A6C4FF0904303EAE2720A64002259
:102450000A654FF67F328A64DBF81010B9F1000F7D
:1024600021F48071CBF810106FF08041C0F818A0F3
:10247000416103D1816941F010018161816943F6B5
:102480000002C8F23C021143BEF1000F816103D08B
:10249000816941F008018161B8F1010F05D18169BD
:1024A00041F0804141F004018161204603B0BDE864
:1024B000F08F00000146806820F0010200208A6051
:1024C00070470000B0B50446C06820F0C040E0602E
:1024D00091B1012926D1E068002540F00050E0606C
:1024E0000120FEF7BBF86069C00705F1010014D1B7
:1024F000312D0546F4D310E0E068002540F080401F
:10250000E06000BF0120FEF7A9F86069C00705F18F
:10251000010002D0312D0546F4D33238B0FA80F0F4
:102520004009B0BD0120B0BDFEE7000040F6000448
:10253000C4F20204FEF7A6F9FFF7A2FBFFF79AFA2E
:10254000FFF754FBFFF772FBFFF794FAFFF74EFB20
:10255000FFF76CFB20464FF480710022FEF778F9FC
:1025600020464FF400710022FEF772F920464FF426
:1025700080610022FEF76CF920464FF400610022D2
:10258000FEF766F9A4F580640CA50FA6204680210D
:10259000FEF756F94FF4FA70FEF760F8284600F09F
:1025A00019F820468021FEF74BF94FF4FA70FEF738
:1025B00055F8304600F00EF8E8E700BF08080808B4
:1025C0007469636B0000000008080808746F636B8F
:1025D0000000000010B50446FDF7F2FE82B240F2A2
:1025E0007C50C2F2000021466423BDE81040FFF792
:1025F000FDB8F1EE100A4FF6FF71C0F2C03120EACB
:10260000010040F04070E1EE100A70470000000049
:102610000000000001020304060708090000000092
:1026200001020304482600080000002010000000FA
:10263000280200085826000810000020C00B0000E7
:102640004802000800000000010000001000000027
:082650000024F400FF0100006A
:04000005080001C529
:00000001FF
