:020000040800F2
:10000000C01A002099020008A11900085D17000815
:100010009D190008E5060008A91B00080000000063
:10002000000000000000000000000000A919000806
:10003000E906000800000000A5190008AD19000835
:10004000B3020008B3020008B3020008B3020008BC
:10005000B3020008B3020008B3020008B3020008AC
:10006000B3020008B3020008B3020008B30200089C
:10007000B3020008B3020008B3020008B30200088C
:10008000B3020008B3020008B3020008B30200087C
:10009000B3020008B3020008B3020008B30200086C
:1000A000B3020008B3020008B3020008B30200085C
:1000B000B3020008B3020008B3020008B30200084C
:1000C000B3020008B3020008B3020008B30200083C
:1000D000B3020008B3020008B3020008B30200082C
:1000E000ED060008B3020008B3020008B3020008DE
:1000F000B3020008B3020008B3020008B30200080C
:10010000B3020008B3020008B3020008B3020008FB
:10011000B3020008B3020008B3020008B3020008EB
:10012000B3020008B3020008B3020008B3020008DB
:10013000B30200080000000000000000B302000845
:10014000B3020008B3020008B3020008B3020008BB
:10015000B3020008B3020008B3020008B3020008AB
:10016000B3020008B3020008B3020008B30200089B
:10017000B3020008B3020008B30200080000000048
:1001800000000000B30200080000000000000000B2
:10019000B30200080000000000000000B3020008E5
:1001A000000000000000000000000000B302000892
:1001B000B3020008B3020008B3020008B30200084B
:1001C000B302000800F002F800F057F814A696E811
:1001D000000CB244B344DA4501D100F04EF8BAE85D
:1001E0000F000FA696E83000A5EB040504EB060708
:1001F000AAEB0704A7F101074FEA15154FEA3414DB
:10020000A4F10104AC4201D300F037F813F0010F60
:1002100018BFFB1A43F0010300F001F8DBE71847B1
:100220000835000028350000103A24BF78C878C18E
:10023000FAD8520724BF30C830C144BF04680C60EC
:1002400070470000704700000023002400250026AE
:10025000103A28BF78C1FBD8520728BF30C148BF29
:100260000B607047642900F0F780002070471FB5CD
:1002700003F0A5F91FBD10B510BD00F0FDF9114642
:10028000FFF7F5FF01F0F8FD00F01BFA03B4FFF7EC
:10029000F2FF03BC00F01EFA0948804709480047F6
:1002A000FEE7FEE7FEE7FEE7FEE7FEE7FEE7FEE726
:1002B000FEE7FEE704480549054A064B7047000083
:1002C000611A0008C5010008C0140020C01A0020EF
:1002D000C0160020C016002053EA020C00F069800E
:1002E0002DE9F04B4FF00006002B1FBFB3FA83F54A
:1002F00003FA05F424FA05F65E4012BF1643B2FA7B
:1003000082F502FA05F4C5F120051EBF22FA05FCAC
:1003100044EA0C04203556EA044C4FEA144418BF52
:10032000641C4FF000084FF00009904271EB030C81
:1003300039D3002919BFB1FA81F701FA07F6B0FAEB
:1003400080F700FA07F6C7F120071EBF20FA07FC66
:1003500046EA0C062037B6FBF4FCA7EB0507103F76
:1003600007F01F0BCBF120062CFA06F60CFA0BFB5C
:1003700044BFB3460026202FA4BF5E464FF0000BBB
:100380005BEA060C08BF4FF0010B19EB0B0948EBB9
:100390000608ABFB027C06FB02CC0BFB03CCC01BAC
:1003A00071EB0C01C1E70B46024641464846BDE8E9
:1003B000F08B13B5084318BF4FF0FF300146AFF381
:1003C0000080BDE81C4070470FB41CB5074B06AA5F
:1003D0007B4469460090059800F02DF9002069469D
:1003E00000F03CF91CBC5DF814FB00008902000021
:1003F0002DE9F0410E460446002020622046E168C7
:10040000884730B3252805D0D4E901219047206AD8
:10041000401CF2E7E168204600278847050018D015
:10042000A5F14100192802D820354FF40067324663
:10043000294620462760FFF715FF40B1012804D068
:10044000F61D26F007060836D8E7361DD6E72846FB
:10045000DAE7206ABDE8F0812DE9F0410646002484
:1004600010687529314616A510D0AFF3008000281A
:1004700002DA404213A507E031688A0701D512A5C8
:1004800002E0490704D511A5012401E0AFF3008083
:1004900000210A2206F1240709E0B0FBF2FCB0FBC0
:1004A000F2F302FB1C00303078541846491C002837
:1004B000F3D123462A463046BDE8F04100F05CB84F
:1004C000000000002D0000002B00000020000000B4
:1004D00010B5431C02E010F8011B71B18107FAD17D
:1004E0004FF0013202C88C1A8C4314EAC211F9D0C1
:1004F000C01A0A0603D0C01E10BDC01A10BD0A04DF
:1005000001D0801E10BD0902FCD0401E10BD4FF06E
:10051000000200B5134694469646203922BFA0E853
:100520000C50A0E80C50B1F12001BFF4F7AF09075F
:1005300028BFA0E80C5048BF0CC05DF804EB890050
:1005400028BF40F8042B08BF704748BF20F8022B93
:1005500011F0804F18BF00F8012B704770477047AB
:10056000704710B500F080F8006810BD10B5044663
:1005700000F07AF8046010BD2DE9F0470D46994669
:100580009246044600F124080168880604D5E06913
:1005900021F01001216000E00120A84201DD471B8D
:1005A00000E00027A1697A1902EB0900081AA0618E
:1005B0002078C00602D42046AFF30080002608E071
:1005C000D4E901211AF806009047206A401C761CE5
:1005D00020624E45F4DB2078C0060AD52046AFF3F2
:1005E000008006E0D4E9012130209047206A401CB9
:1005F0002062381EA7F10107F4DC07E0D4E90121ED
:1006000018F805009047206A401C2062281EA5F1BA
:100610000105F3DC2046AFF300802078000602D508
:100620000220BDE8F0870120FBE7000001694A1CB9
:1006300002610878704700B58FB0CDE90131002123
:10064000059105497944CDE9031011466846FFF745
:10065000CFFE0FB000BD0000E5FFFFFF0A6802F803
:10066000010B0A607047000000487047100000202E
:1006700000487047100000207546FFF7F9FFAE46AE
:1006800005006946534620F00700854618B020B59E
:10069000FFF710FEBDE820404FF000064FF00007C6
:1006A0004FF000084FF0000BAC46ACE8C009ACE8D6
:1006B000C009ACE8C009ACE8C00921F007018D46CB
:1006C000704710B50446AFF300802046BDE81040E7
:1006D000FFF7DCBD01491820ABBEFEE72600020093
:1006E00070470000FEE700007047000043F614402A
:1006F000C4F201000068800406D540F20C00C2F28A
:10070000000001680A3101604FF4005000F0B8B8F1
:100710004379012B4FF0020320D010B50371036819
:1007200002F0100ED3F800C0D1E9001440F6FE72BA
:1007300002FA0EF221432CEA020201FA0EF11143F1
:100740001960C0211A6801FA0EF122EA010119604C
:100750000121002301714371BDE810401846704724
:10076000002804BF01207047017941B910B500216C
:100770004171044600F00CF82046BDE8104002210B
:1007800001710021012201610271084670470000D9
:1007900080B586B047F200410068C4F20001002233
:1007A00088420592CDE903220292019202D006B05E
:1007B00080BD00BF43F630000092C4F2020003691E
:1007C00043F000530361036903F000530093009B5F
:1007D0000092036843F001030360006800F0010029
:1007E00000900098102001900320CDE9020201F54D
:1007F000C63001A900F050F806B080BD81B04FF0BE
:10080000000CCDF800C0006800290090009810444A
:1008100014BF143008300090009900200B6001B024
:10082000704700004279012A4FF0020224D010B52F
:100830000271026801F0100C4FF0010E14680EFAFC
:100840000CF323431360136841B103F470113C238C
:1008500003FA0CF3994209D1022104E003F03C01B0
:100860003C2903D101215368194351600121002221
:1008700001714271BDE8104010467047704700009A
:1008800043F61441C4F201010A68024214BF086031
:100890007047FFF7F3BF00002DE9F04F83B000F180
:1008A000200200F13E4741F60005009207F1FF7774
:1008B000C4F2020507224FEAB726A84208BF062263
:1008C00000254FF000084FF00009062E38BF4FEA10
:1008D000B72201920AE000BF09F1010908F10208FC
:1008E000B9F1100F05F1040500F0A2800F68012294
:1008F00002FA09FE17EA0E0AEED0D1F804C003226C
:100900000CF003077E1E02FA08F4012E6FEA040BB6
:1009100012D88468CE6804EA0B0406FA08F6344359
:100920008460446824EA0E06CCF3001404FA09F447
:100930002643466004E000BF032F01D103271EE0D9
:10094000C6688C6806EA0B0604FA08F42643022FF0
:10095000C66014D16FF00302009E02EA590756F8F0
:1009600007C005F01C040F220B69A2402CEA02020A
:10097000A3401A43F251D1F804C00CF003070268F7
:1009800007FA08F302EA0B021A431CF4403F026024
:10099000A2D0002243F644030292C4F202031A6872
:1009A00043F6004442F480421A601A68C4F201041B
:1009B00002F480420292029A29F003024FF6084C98
:1009C0002244CFF6FF7C52F80C3005F00C070F26BE
:1009D000BE40B343019E06FA07F73B4342F80C3092
:1009E000A2684B6842EA0A0743F60C4CDE0258BF85
:1009F00022EA0A07A760C4F2010CDCF800209E027C
:100A000042EA0A0758BF22EA0A07CCF80070626877
:100A10009E0342EA0A0758BF22EA0A076760226873
:100A2000DB0342EA0A0758BF22EA0A07276053E7B6
:100A300003B0BDE8F08F0000002A08BF09048161FF
:100A40007047000041F2B840C2F2000000687047F1
:100A500040F2000041F2B841C2F20000C2F20001CF
:100A600000780A68104408607047000080B543F6BB
:100A70000040C4F20200016841F4007101600168A5
:100A800041F480610160016841F4807101600320DC
:100A900000F086F8002000F005F800F027F80020AC
:100AA00080BD000070B540F20006C2F2000640F2C0
:100AB00008013278C2F200014FF47A730968B3FB7F
:100AC000F2F20446B1FBF2F1084600F093FB0F2C62
:100AD0004FF0010508D838B94FF0FF302146002209
:100AE000002500F031F87460284670BD82B0002007
:100AF00043F640010190C4F202014A6842F4804288
:100B00004A604A6802F480420192019A00900868A3
:100B100040F080500860086800F080500090009815
:100B200002B07047002848BF704700F01F01012243
:100B300002FA01F11C2202EAD0004EF20012CEF2BB
:100B4000000281507047000010B54EF60C5CCEF2EA
:100B5000000CDCF80030C3F3022E8EF00704042CE6
:100B600028BF0424BEF103034FF0FF3E0EFA04F445
:100B700038BF0023A14399400EFA03F39A4311436F
:100B800000F00F0200F160430901043A03F56443E9
:100B90006244002848BF02F10C03197010BD000028
:100BA0004EF60C51CEF200010A684FF6FF031A40D0
:100BB00060F30A2242F0806040F0FD7008607047E8
:100BC000002804BF012070472DE9F04143F60808D2
:100BD000C4F202080446D8F8F8030D4600F00F00EE
:100BE000884207D288F8F853D8F8F80300F00F00CD
:100BF000A84277D12068810717D5410705D5D8F8D5
:100C0000001041F4E051C8F80010010705D5D8F8EC
:100C1000001041F46041C8F80010D8F80010A26834
:100C200021F0F0011143C8F80010C00740D1D8F8F6
:100C3000F80300F00F00A84207D988F8F853D8F855
:100C4000F80300F00F00A8424CD12068410707D5F7
:100C5000D8F80010E26821F4E0511143C8F8001000
:100C6000000708D5D8F80000216920F4604040EA68
:100C7000C100C8F8000000F07DF8D8F8001043F279
:100C80001072C1F30311C0F60002515C40F2080279
:100C900020FA01F140F20400C2F200000068C2F242
:100CA00000021160FFF7FEFE0020BDE8F08100BFEA
:100CB0006068811E022907D258F8081C89015CBFB0
:100CC0000120BDE8F08111E0012807D158F8081C87
:100CD00089035CBF0120BDE8F08107E058F8081CDB
:100CE000890703D40120BDE8F08100BFD8F80010C7
:100CF00021F003010843C8F80000FFF7A3FE0646F1
:100D000041F28837D8F80000616800F00C00B0EBC1
:100D1000810F8CD0FFF796FE801BB842F2D90320DA
:100D2000BDE8F08140F2080043F60801C2F200007D
:100D3000C4F202010068096843F22072C1F3822103
:100D4000C0F60002515CC8407047000040F2080045
:100D500043F60801C2F20000C4F20201006809680B
:100D600043F22072C1F34231C0F60002515CC84028
:100D70007047000010B543F60404C4F20204606832
:100D8000C0F3810142F20040C0F2F400DFE801F05C
:100D90004202081841F20020C0F27A0010BD00BFE4
:100DA000216801F03F02216823684902C3F38811DA
:100DB00016D4A1FB00010023FFF78EFA17E000BF55
:100DC000216801F03F02216823684902C3F38811BA
:100DD00014D4A1FB00010023FFF77EFA15E000BF49
:100DE00041F20020C0F27A004843B0FBF2F02168E3
:100DF0000222C1F3014102EB410109E041F200206E
:100E0000C0F27A004843B0FBF2F02168C1F30271EE
:100E1000B0FBF1F010BD0000002804BF01207047B6
:100E20002DE9F04182B00446007843F60006C00781
:100E3000C4F202060CD0B06800F00C00042840F0A8
:100E400089803068800303D56068002800F05081F5
:100E50002078800723D5B06810F00C0F11D0B0684F
:100E600000F00C00082802D17068400209D5B06873
:100E700000F00C000C2840F09F807068400200F1E8
:100E80009B803068800703D5E068012840F03081FE
:100E90003068216920F0F80040EAC1003060207815
:100EA000000713D4207840072AD4A569002D00F04C
:100EB0001A81B06800F00C00082840F0AB80012DCA
:100EC00040F0E880012002B0BDE8F08160690028B0
:100ED00040F20000C4F2472000F088800121C0F8F1
:100EE000801EFFF7AFFD0546706F8007DAD4FFF76D
:100EF000A9FD401B0228F7D9032002B0BDE8F0810C
:100F0000306C5FEAC0080AD400200190306C40F0D9
:100F100080503064306C00F080500190019847F2AE
:100F20000007C4F200073868C00537D4386840F4B9
:100F300080703860FFF786FD054600BF3868C00541
:100F40002CD4FFF77FFD401B0228F7D9032002B005
:100F5000BDE8F081B06800F00C00082803D170688B
:100F600040023FF56EAFB06800F00C000C2803D1D2
:100F7000706840023FF565AF61683068B1F5803F49
:100F800007D0B1F5A02F40F0CB8040F48020306036
:100F9000306840F480303060CBE000BFA168306F33
:100FA000012905D0052957D140F004003067306F82
:100FB00040F00100306759E0E068002800F09C80B4
:100FC0000020C4F2472001210160FFF73BFD0546E8
:100FD000306880073FF55CAFFFF734FD401B022807
:100FE0004FF00300F4D902B0BDE8F0810021C0F851
:100FF000801EFFF727FD0546706F80077FF552AF13
:10100000FFF720FD401B0228F6D9032002B0BDE8FF
:10101000F08100BF0027C4F2472700203866FFF7A1
:1010200011FD022D05460BD13068800140F1928000
:10103000FFF708FD401B02284FF00300F4D9D2E768
:10104000306880014FD5FFF7FDFC401B02284FF0B0
:101050000300F5D9C7E700BF20F001003067306F0B
:10106000002920F00400306700F09880FFF7EAFCC8
:10107000054641F2883700BF306F800700F1A0803D
:10108000FFF7E0FC401BB842F6D9032002B0BDE8F0
:10109000F08100BF7068E16900F480028A4227D1C4
:1010A000216A00F03F028A4222D147F6C071626A8B
:1010B0000140B1EB821F1BD1A16A4FF6FF73C90338
:1010C000994300F44032A1F580318A4210D1E16A9F
:1010D00000F07062B2EB016F0AD1216B00F0E040CA
:1010E000B0EB017F04D1002002B0BDE8F08100BF69
:1010F000012002B0BDE8F0810020C4F247200021A9
:101100000160FFF79FFC0546306880077FF5C7AE9A
:10111000FFF798FC401B02284FF00300F4D962E768
:1011200020F4803030603068002920F48020306066
:1011300050D0FFF787FC0546306880033FF588AE46
:10114000FFF780FC401B6428F6D9032002B0BDE8FD
:10115000F08100BF04F11C052FCD246B084340EA49
:101160008210D9034FF6FF729143A1F5803140EA16
:101170000560084340EA0470706001203866FFF79C
:1011800061FC044630688001ADD4FFF75BFC001BB6
:1011900002284FF00300F5D925E700BFFFF752FC06
:1011A000054641F2883700BF306F800708D5FFF74A
:1011B00049FC401BB8424FF00300F5D913E700BFCC
:1011C000B8F1000F3FF571AE306C20F08050306404
:1011D0006BE600BFFFF736FC054600BF30688003B2
:1011E0007FF536AEFFF72EFC401B64284FF003005E
:1011F000F4D9F8E6411E0020B0EB116F1CBF0120AE
:1012000070474EF21002CEF2000251604EF62351AA
:10121000CEF20001F0230B7007219060116070473F
:1012200090F83C20012A4FF0020254D010B580F80B
:101230003D200268D2F804E0D2F808C00C682EF015
:101240007003234341F2FF74C4F20004A2425360CE
:101250000EDC40F2FF73C4F200039A4216DCB2F1D6
:10126000804F2BD040F20043C4F2000324E000BFC3
:1012700040F2FF33C4F201039A4213DC41F600034B
:10128000C4F200039A4219D0002313E040F6000391
:10129000C4F200039A4211D040F60043C4F20003A6
:1012A0000AE000BF44F20003C4F201039A4205D0F1
:1012B00040F20043C4F201039A4204D149682CF081
:1012C0008003194391600121002280F83D1080F8CD
:1012D0003C20BDE81040104670470000002804BFC5
:1012E0000120704710B5044690F83D0028B9002051
:1012F00084F83C00204600F01FF8022084F83D00EE
:101300002068211D00F0B6FB012084F8460084F817
:101310003E0084F83F0084F8400084F8410084F8DF
:10132000420084F8430084F8440084F8450084F8BF
:101330003D00002010BD0000006841F20001C4F231
:101340000001884218BF704781B00020009043F62A
:101350004000C4F20200016841F010010160006821
:1013600000F010000090009801B0704790F83D1018
:1013700001291CBF01207047022180F83D10006840
:1013800041F2FF71C4F2000188420DDC40F2FF71AE
:10139000C4F20001884215DCB0F1804F2AD040F23F
:1013A0000041C4F2000123E040F2FF31C4F2010128
:1013B000884213DC41F60001C4F20001884219D0D2
:1013C000002113E040F60001C4F20001884211D070
:1013D00040F60041C4F200010AE000BF44F20001FF
:1013E000C4F20101884205D040F20041C4F201017B
:1013F000884206D1816801F00701062904BF002058
:101400007047016841F00101016000207047000051
:10141000002804BF0120704770B5044690F83D00D5
:1014200028B9002084F83C00204600F06FF8022024
:1014300084F83D002068D4E902C2D4F810E0C56801
:1014400004F1180625F00C05C56005694ACE25F49F
:101450007C55294319433143114341F40061016133
:10146000C16849F20C629143626941EA0C0141EAA8
:101470000E01114341F40041C160416941F2004352
:1014800040F48062C4F2010321F440719A42416148
:1014900002D1FFF75BFC01E0FFF744FCD4E9005305
:1014A0001921A0FB01015A00DB0FFEF715FF48F2DE
:1014B0001F51C5F2EB11A0FB01235A094FF69C7393
:1014C000C1F6FF7302FB0300322303EBC000A0FB55
:1014D00001014FF4F87000EA111000EB0210C1F3A3
:1014E00042110844A8602869012120F48040286145
:1014F000686920F02A006861E86840F40050E860FC
:101500000020206484F83D1070BD00002DE9F043F8
:1015100087B044F600050068C4F200050026A84222
:101520000696CDE904660396029603D007B0BDE89F
:10153000F08300BF43F630000196C4F20200016957
:1015400002AC41F48021016101694FF0020801F40D
:10155000802101910199019601684FF0030941F042
:10156000020101600168072701F002010191019960
:101570000196016841F0080101600068214600F011
:101580000800019001984FF48050029005F5DE307C
:10159000CDE90386CDF814900697FFF77DF94FF457
:1015A0004070CDE9020805F5E2302146CDE9046935
:1015B0000697FFF771F907B0BDE8F0832DE9F04316
:1015C00081B0044690F83D0001280DD100294FF06C
:1015D000010018BF002A03D101B0BDE8F08300BFAD
:1015E00094F83C00012803D1022001B0BDE8F0834B
:1015F000012084F83C000020206412201D460E4685
:1016000084F83D001746FFF71DFA27856785A16816
:101610008146B1F5805F02D1206900285CD0374651
:101620000020628D2168002A5CD06A1C23D0002D26
:1016300046D080460868000608D4FFF703FAA0EBFE
:1016400009002168A842F5D96CE000BF17B117F86E
:10165000010B04E038F8020B00276FF35F204860AD
:10166000608D01386085608D0028E3D13AE000BFCD
:101670000A68120609D40A68120606D40A68120615
:101680005CBF0A685FEA0262F2D51FB117F8012B4E
:1016900005E000BF30F8022B00276FF35F224A609D
:1016A000628D013A6285628D002AE4D11AE000BFA2
:1016B00017F8012B4A60628D013A6285628D8AB10A
:1016C0000A6812062ED5002FF2D130F8022B00271F
:1016D0006FF35F22EEE700BF00273046628D21687E
:1016E000002AA2D1086840062ED4DDB1681C12D1B0
:1016F0000868400628D4086840065CBF08685FEAAE
:10170000406021D4086840064FF00000F0D51CE08E
:101710000868400618D4FFF795F9A0EB0900216886
:10172000A842F5D9C86820F08000C860C86820F0D9
:101730002000C860C86820F48070C860486920F044
:1017400001004861032000E00020012184F83D10E1
:10175000002184F83C1001B0BDE8F083FEE70000F2
:1017600080B582B00020CDE9000040F2700047F261
:101770000041C2F20000C4F200010160FEF7F0FF78
:1017800020B1EFF3108072B6FEE700BF40F27000A8
:10179000C2F2000069460022FEF7BAFF20B1EFF363
:1017A000108072B6FEE700BF02B080BD2DE9F047A1
:1017B00086B0002743F630000597CDE90377CDE9E1
:1017C00001770097C4F20200016841F6000A41F077
:1017D000040101600168C4F2020A01F004010091F1
:1017E000009900970168AAF5A05641F080010160B8
:1017F0000168002201F080010091009900970168C2
:1018000044F2810841F001010160016801F0010129
:10181000009100990097016841F0020101600168A0
:1018200001F00201009100990097016841F0080160
:101830000160016801F008010091009900970168BA
:1018400041F040010160006844F2810100F0400075
:10185000009000983046FFF7EFF8504640210022F4
:101860004FF04009FFF7E8F84FF4005001904FF4B3
:10187000881001ADCDE90207AAF580502946FFF78F
:101880000BF8012430462946CDF80480CDE9024703
:101890000497FFF701F850462946CDE90194CDE9B8
:1018A0000377FEF7F9FF8020CDE90107504629466E
:1018B0000397FEF7F1FF4FF4E85001900220CDE9C5
:1018C0000207032004900A20AAF5C0540590204680
:1018D0002946FEF7E1FF4FF40070CDE901072046ED
:1018E00029460397FEF7D8FF282000210022FFF7A2
:1018F0002BF92820FFF716F906B0BDE8F0870000A5
:1019000080B582B040F2840041F200020021C2F2B0
:101910000000C4F200024FF4FA534FF6FF7CCDE909
:101920000011C0E90023C0E9021C8161FFF7D6FC69
:1019300020B1EFF3108072B6FEE700BF40F28400E2
:10194000C2F200006946FFF76BFC28B1EFF310808C
:1019500072B600BFFEE700BF02B080BD80B540F2A6
:10196000CC0044F60001C2F20000C4F200010023E2
:101970004FF00C0C4FF4E13280E80E00C0E9033365
:10198000C0E905C3C0E90733FFF742FD002808BFDF
:1019900080BDEFF3108072B6FEE70000FEE70000A6
:1019A000FEE700007047000070470000FFF750B8E6
:1019B00070B594B007AC20463421FEF7A8FD002591
:1019C00043F640000695CDE90455CDE90255019551
:1019D000C4F202000168012241F0805101600068F8
:1019E000022600F080500190019847F20000019516
:1019F000C4F20000016862F38F310160006800F4F6
:101A000040400190019810200B9008200F90642016
:101A1000CDE91006204607960A92CDE90D65CDE97D
:101A20001266FFF7F9F928B1EFF3108072B600BF24
:101A3000FEE700BF0F20CDE902064FF4A05005904D
:101A40004FF48050069002A803210495FFF7B8F8E0
:101A500020B1EFF3108072B6FEE700BF14B070BD86
:101A60004EF68850CEF20000016841F4700101602A
:101A70007047000010B540F6FF3E0368C4F2000E48
:101A800040F2004C7045C4F2010C25DCB0F1804FEF
:101A90002FD040F20042C4F20002904229D040F61A
:101AA0000002C4F20002904223D041F6FF72C4F259
:101AB0000002904227DC70453ADCB0F1804F5BD0E9
:101AC00040F20042C4F20002904255D040F60002BB
:101AD000C4F200024EE000BF40F60042C4F2000231
:101AE000904206D0604504D00022C4F20102904228
:101AF000DBD14A6823F07003134341F6FF72C4F24E
:101B000000029042D7DD43F6FF72C4F20102904218
:101B100020DC42F20002C4F2000290422CD00022EB
:101B2000C4F20102904227D0604525D028E000BFD2
:101B300040F60042C4F2000290421DD041F600027D
:101B4000C4F20002904217D041F60042C4F20002F3
:101B500010E000BF44F20002C4F2010290420BD038
:101B600044F60002C4F20102904205D044F2004261
:101B7000C4F20102904203D1CA6823F440731343B4
:101B800023F080024B69D1F800E08C681A430260B0
:101B9000C46240F48062C0F828E0624504BF09696D
:101BA00001630121416110BDFEE70000000000005B
:101BB0002DE9F04F81B02DED0E8B8CB040F20C0A68
:101BC000C2F2000ADAF800700020002F40F3F8801B
:101BD0009FED9B0B9FED9C1B099051EC100B9FED13
:101BE0009C0B9FED95AB9FEDA28ACDE9001050ECC8
:101BF000111B9FED99BB9FED9ACB9FED9BDBCDE930
:101C00000A10B1EE009A51EC100BCDE9061025E058
:101C10002EEE090A10EE100A01F060FCDDE9063232
:101C200001F080F8DDE9042300F0D4FFDDE90223B0
:101C300001F05CFA01F002FA40F6E421089AC2F2DF
:101C4000000141F8220051EC1A0B53EC1D2B00F05F
:101C5000C1FF41EC1A0B099802300990DDF8288089
:101C6000012FB0EE48EA3BDBDDE9003251EC1A0B04
:101C700001F03CFA81468B4600250126B0EE48EA89
:101C8000304601F008FA07460C46484659463A469F
:101C9000234601F02BFA0B9B424601F043F841EC3E
:101CA000100B00F0D5FA51EC100B3A46234601F028
:101CB00039F804461EEE100A0F4601F00FFC0246EA
:101CC0000B462046394600F085FF00F051FFDAF858
:101CD000007001350EEE100ABD4206F10206CFDBA0
:101CE0002EEE090A10EE100A01F0F8FBDDE90632CB
:101CF00001F018F858EC1B9B4A46434600F06AFF77
:101D000055EC1C6B32462B4601F0F0F901F096F9C8
:101D1000099940F2752241F00103934240F6E42212
:101D2000C2F20002089342F821007CD0012FB0EEED
:101D300048EACDE90265CDE90498FFF669AF089855
:101D400001F0A9F9DDE9003201F0D0F983460C4633
:101D50004FF000080125B0EE48EA00BF284601F028
:101D60009AF9064689465846214632464B4601F0C6
:101D7000BDF9DDE90A2300F0D5FF41EC100B00F0BE
:101D800067FA51EC100B32464B4600F0CBFF06468B
:101D90001EEE100A0F4601F0A1FB02460B4630462C
:101DA000394600F017FF00F0E3FEDAF8007008F1A2
:101DB00001080EEE100AB84505F10205CEDB27E753
:101DC00040F6E421C2F2000140F2FF7240F6D41363
:101DD0000F180A5094309842C7E90122C7E903223C
:101DE000C7E90522C7E90722C7E90922C7E90B228B
:101DF000C7E90D22C7E90F22C7E91122C7E913225B
:101E0000C7E91522C7E91722C7E91922C7E91B222A
:101E1000C7E91D22C7E91F22C7E92122C7F88C2084
:101E2000C7F89020D4D10CB0BDEC0E8B01B0BDE84A
:101E3000F08F00BF00BF00BF0000000000000000E6
:101E4000112D4454FB2119400000000000A88340DC
:101E5000112D4454FB210940000000000000F03F18
:101E60000000000000FC9F40000000000000004057
:101E70000000000000000000A8B0FEF7F7FDFFF72B
:101E800097FD40F2840BC2F2000BDBF80000406AC1
:101E9000FFF78CFCFFF764FCFFF732FDFFF75EFDF8
:101EA00040F27004C2F200042046FEF759FC2046BE
:101EB0000021FEF7B7FC5846FFF758FA40F2101021
:101EC0009FEDBD0BC2F200009FEDBD1B00F10808A5
:101ED00051EC100BCDE9061051EC110B9FEDBA1B24
:101EE0000B9050EC11AB9FEDBA1B0E910A9050EC89
:101EF000111B9FEDB91B9FEDAE0B0A9F4FF003091D
:101F00000C91099051EC110BCDE9011055EC106BBF
:101F1000DDE906323046294601F0E8F80B9A0E9BBF
:101F200000F000FF41EC100B00F092F90A9B51EC1D
:101F3000100B524600F04EFE0C9A099B01F0D6F8A9
:101F400001F07CF840F27721894548F8080C79D0F7
:101F5000A9F1020001F09FF8079CCDF81490DDF87C
:101F6000189022464B4601F0C1F8CDF83480DDF8D8
:101F70002C800E9B424600F0D5FE41EC100B00F089
:101F800067F951EC100B52463B46049600F022FED6
:101F9000099E0C9A3346039501F0A8F801F04EF81B
:101FA0000D9941F8040C0598013801F074F82246A7
:101FB0004B4601F09BF80E9C4246234600F0B2FED1
:101FC00041EC100B00F044F951EC100B52463B462B
:101FD00000F000FE0C9D33462A4601F087F801F020
:101FE0002DF80D990860059801F055F8079A4B46B1
:101FF000DDF8149001F07AF84246DDF8348023468B
:1020000000F090FE41EC100B00F022F951EC100BA7
:1020100052463B4600F0DEFD2A46334601F066F8A4
:1020200001F00CF8C8F80400DDE90310DDE9013225
:1020300000F0D0FD41EC100B09F1040908F1100883
:1020400064E700BFFFF7B4FDDBF800009FED588B9D
:10205000406A40F20C049FED649A9FED61BBC2F2AE
:102060000004B1EE00AA0490CDF820A017E000BF54
:1020700040F2840BC2F2000BDBF800000FAF406AA5
:102080000499421A0599A0EB010038BF00F580328F
:10209000384656A1FEF798F9384600F0B1F840F2FC
:1020A0007000C2F2000000210027FEF7BBFBDBF846
:1020B0000000B0EE48CA406AF0EE68CA05902EE013
:1020C0002DEE0A0A10EE100A01F008FA53EC1B2B51
:1020D00000F028FEDDF820A0DDF8288052464346B7
:1020E00000F078FD0C9A099B01F000F800F0A6FFC3
:1020F000034640F27000C2F2000000210022FEF709
:102100007DFB51EC1C0B5246434600F063FD0D9FD6
:1021100041EC1C0B013740F275208742A8D02068A3
:102120000B9E0128B0EE49DA0D97C9DBDDE90632D6
:1021300051EC1C0B00F0DAFF8246884600274FF076
:10214000010BB0EE49DA00BF584600F0A4FF81460B
:102150000D46504641464A462B4600F0C7FF0E9BAF
:10216000324600F0DFFD41EC100B00F071F851EC4D
:10217000100B4A462B4600F0D5FD05461DEE100A11
:10218000B1460E4601F0AAF902460B4628463146F2
:102190004E4600F01FFD00F0EBFC0DEE100A20682B
:1021A000013787420BF1020BCEDB89E700BF00BF8E
:1021B0000000000000000000112D4454FB211940D4
:1021C0000000000000A88340000000000000F03F75
:1021D0000000000000FC9F400000000000001040D4
:1021E000112D4454FB210940000000006E756D2044
:1021F0006379636C6573203D2025640A000000004C
:1022000010B50446FEF764F982B240F2CC00C2F287
:10221000000021466423BDE81040FFF7CFB903B4A6
:1022200001984100009850EAC12018BF04204A0DCF
:1022300018BF40F0010040F2FF72B2EB515F08BFDF
:1022400040F00200012808BF052002B070470000DE
:1022500010B52F499FED2C1B2DED020B84B0059876
:1022600020F000408842DCBF00209DED040B32DDF1
:102270002849884209D1049840B94FF00100FEF77F
:1022800075F900F03DFC06B010BD05DB9DED040BBB
:1022900000F02AFC06B010BD68469DED040B00F06E
:1022A0003BF810F0030011D0012818D09DED021B5F
:1022B0009DED000B02281AD000F04AFA51EC100BE9
:1022C00000F04AFC06B041EC100B10BD9DED021B66
:1022D0009DED000B012000F06FFB06B010BD9DEDE1
:1022E000021B9DED000B00F033FA06B010BD01207B
:1022F00000F062FB51EC100B00F02EFC06B041EC3C
:10230000100B10BD000000000000000000000000E5
:10231000FB21E93F0000F07F2DE9F14F04462DED50
:10232000020B2DED088B8AB09FEDE70B80ED020BC1
:10233000139EE74826F0004585420ADC9DED120B0E
:10234000002084ED000B0AB0BDEC088B03B0BDE8A3
:10235000F08FE0489FEDE0AB9FEDE1BBA84247DD89
:10236000E14F9FEDE39B9FEDE48B9DED120B53EC52
:102370001A2B51EC100B002E1CDD00F0C1FF41ECBC
:10238000100BBD4208D053EC1B2B51EC100B00F08E
:10239000B7FFC4E900010BE053EC192B51EC100B13
:1023A00000F0AEFF53EC182B00F0AAFFC4E90001C7
:1023B0000120C8E700F00EFC41EC100BBD4208D034
:1023C00053EC1B2B51EC100B00F004FCC4E9000192
:1023D0000BE053EC192B51EC100B00F0FBFB53EC12
:1023E000182B00F0F7FBC4E900014FF0FF30AAE71B
:1023F000C348A84279DB9DED120B51EC100B00F0A5
:102400009FFB41EC180B9FEDC00B53EC102B00F021
:102410006DFE9FEDBF1B53EC112B00F0DBFB00F0BA
:10242000DDFD074600F037FE41EC190B53EC1A2B8B
:1024300000F05CFE53EC182B00F056FF41EC180B3B
:1024400053EC1B2B51EC190B00F050FEDFF8C8A227
:1024500041EC100B4FEA15580125FA4453EC102BB0
:1024600051EC180B00F04CFF032DC4E900013DD0E6
:10247000C1F30A5005EB4511A8EB00001139814268
:1024800034DA0AEB051BB0EE48AA9BED000BF0EE28
:1024900068AA53EC102B51EC190B00F027FE41EC0D
:1024A0001B0B51EC1A0B53EC1B2B00F029FF41ECDA
:1024B000180B51EC1A0B53EC182B00F021FF53ECC6
:1024C0001B2B00F01DFF9BED020B41EC1A0B53EC94
:1024D000102B51EC190B00F009FE53EC1A2B00F0F5
:1024E0000FFF41EC100B6D1CB8E70EE0002EA8BFEB
:1024F0003846BFF628AF94ED000B51EC100B00F0FE
:102500002BFBC4E9000178421DE7C6F3130040F439
:10251000801EC6F30A50A0F2F530471100F01F05E7
:10252000C5F12000DDF848B0089000200690079023
:102530000520EC467949002D07EB0002794408BFDD
:1025400051F8221009D051F8223001EB8201AB4042
:102550004A68089922FA01F11943A1FB0E26A1FB52
:102560000B131A449A4234BF0123002303EB0608DD
:102570000CEB8003D3E901A60E448E4234BF012147
:10258000002192448A4411B1924502D903E0924558
:1025900001D2012100E00021C3E901A641444CF829
:1025A0002010011EA0F10100C4DC029800F10050CF
:1025B000850F0298DDE903678000DDF8148000F0E4
:1025C0006AFD41EC1A0B304600F07CFD9FED541B78
:1025D00053EC112B00F08AFD41EC1B0B384600F048
:1025E00071FD9FED511B53EC112B00F07FFD41EC71
:1025F000180B404600F066FD9FED4D1B53EC112B70
:1026000000F074FD41EC190B51EC180B53EC192B35
:1026100000F0E0FA53EC1B2B00F0DCFA53EC1A2B21
:1026200000F0D8FACDE90801002008909DED080BD4
:1026300053EC1A2B51EC100B00F062FE53EC1B2BE9
:1026400000F05EFE53EC182B00F05AFE53EC192BF1
:1026500000F04AFE9FED381B53EC112B00F046FDB5
:102660009FED370B41EC180B53EC102B9DED080B35
:1026700051EC100B00F03AFD53EC182B00F0AAFAC5
:102680009FED310B41EC180B53EC102B9DED080B1B
:1026900051EC100B00F02AFD53EC182B00F09AFAC5
:1026A00041EC100B139810F0004F06D06D4251EC26
:1026B000100B00F051FA41EC100B284684ED000B92
:1026C00041E60000000000000000000000000000E3
:1026D000FB21E93F7CD9024000004054FB21F93F37
:1026E0003163621A61B4D03DFB21F93F0000000064
:1026F0000000601A61B4D03D7370032E8A19A33BA9
:10270000FB2139410000000083C8C96D305FE43F00
:10271000000000000000E03FBA11000008110000B6
:10272000000000000000103E000000000000103C0F
:10273000000000000000103A182D4454FB21F93D20
:102740003326A611460B113C00000054FB21F93D35
:1027500010B52DED040B2DED088B82B0B0EE419A33
:10276000F0EE619A0B9820F000449FED4BABB4F172
:10277000795F11DA9DED0A0B51EC100B00F02EFC85
:10278000002801BFB0EE4A0AF0EE6A0A02B0BDECC2
:10279000088B04BF04B010BD9DED0A0B53EC102B49
:1027A00051EC100B00F0A2FC41EC180B3C48062148
:1027B000B0EE480AF0EE680A784400F081F853EC75
:1027C000182B51EC100B00F091FC9DED0A0B41EC25
:1027D0001B0B53EC192B51EC100B00F087FC41EC58
:1027E000190B53EC1B2B51EC180B00F07FFC53EC36
:1027F000192B00F085FD9FED2C0B41EC190B53ECD0
:10280000102B51EC180B00F071FC41EC100B284818
:10281000844210DA53EC192B51EC100B00F070FDD0
:1028200053EC1A2B00F060FD41EC100B02B0BDEC34
:10283000088B04B010BD1F48A042BCBF9FED1E1BFB
:102840008DED001B06DBA4F5001001900020009028
:102850009DED001B51EC100B53EC112B00F050FDC3
:102860009DED000B41EC180B53EC102B51EC1A0BA7
:1028700000F046FD41EC1A0B53EC192B51EC180BF0
:1028800000F03EFD53EC1A2B00F02EFD41EC100B36
:10289000CCE7000000000000000000000000F03F56
:1028A0002C0E000000000000000000000000E03FCF
:1028B0003333D33F0000E93F000000000000D23F67
:1028C00070B504462DED028B4D1E00EBC500B0EE39
:1028D000408AF0EE608A90ED000B35F0060017D0CC
:1028E00053EC182B51EC100B00F000FC41EC100BDA
:1028F0006D1E04EBC50090ED001B51EC100B53EC6A
:10290000112B00F067F941EC100B35F00600E7D110
:10291000022D36D0042D1CD0062D1CBFBDEC028B21
:1029200070BD53EC182B51EC100B00F0DFFB94ED55
:102930000A1B53EC112B00F04DF953EC182B00F04F
:10294000D5FB94ED081B53EC112B00F043F941EC3F
:10295000100B53EC182B51EC100B00F0C7FB94ED4F
:10296000061B53EC112B00F035F953EC182B00F03B
:10297000BDFB94ED040B53EC102B00F02BF941EC54
:10298000100B53EC182B51EC100B00F0AFFB94ED37
:10299000021B53EC112B00F01DF953EC182B00F027
:1029A000A5FB94ED001B53EC112B00F013F9BDECCB
:1029B000028B41EC100B70BD31B504462DED040BBC
:1029C0002DED0A8BB0EE41BAF0EE61BA0B989DED99
:1029D0000A0B20F00040B0F1795F0DDA51EC100BDA
:1029E000FFF71DFC042808BF00F09AF89DED0A0BC4
:1029F000BDEC0A8B05B030BD53EC102B51EC100B25
:102A000000F074FB41EC180B9DED0A0B53EC182BF6
:102A100051EC100B00F06AFB41EC190B2C48B0EEA6
:102A2000480AF0EE680A05217844FFF749FF9FED58
:102A30002ACBB0EE40AAF0EE60AA9CB353EC1C2B5C
:102A400051EC190B00F052FB41EC1C0B53EC1A2B10
:102A500051EC190B00F04AFB9FED210B41EC190BD7
:102A600053EC102B51EC1B0B00F040FB53EC192BDB
:102A700000F046FC53EC182B00F038FB53EC1B2BFA
:102A800000F03EFC53EC1C2B00F03AFC9DED0A1BC1
:102A900053EC112B00F028FCBDEC0A8B05B041EC87
:102AA000100B30BDFFE753EC1A2B51EC180B00F064
:102AB0001DFB53EC1C2B00F08DF853EC192B00F090
:102AC00015FB9DED0A1B53EC112B00F083F8E3E797
:102AD000BC0C000000000000495555555555C5BFB8
:102AE000000000000000E03F10B553EC102B51EC4B
:102AF000100B00F06FF841EC100B10BD000000004F
:102B00009FED050B10B553EC102B51EC100B00F0A2
:102B100009F941EC100B10BD00000000000000009E
:102B20009FED050B10B553EC102B51EC100B00F082
:102B3000DDFA41EC100B10BD000000000000001099
:102B400082B0CDE9000121F0004001909DED000B25
:102B500002B051EC100B704781F00041704780F0DB
:102B60000040704721F00041704720F0004070475E
:102B700021F0004201F00043A2F16052B2F5801F43
:102B800028BFD2F17F6C0BD95FEA001C43EAC20276
:102B900042EB507018BF704728BF20F0010070470B
:102BA000B2F5801FBCBF184670474FEA410C1CF5B8
:102BB000001F02D2084600F00FBD70B500F040FBC8
:102BC00000000089FFF7F6BF4FF00040A0F580003D
:102BD0007047000010B591EA030F48BF83F000432F
:102BE00000F19683841A71EB030C05D2121943EBA2
:102BF0000C03001B61EB0C014FEA1154A4EB135CB6
:102C0000DFF81CE11EEA430F18BF9EEA445F00F0A4
:102C1000748021EA045123EA0E0343F48013DCF1AB
:102C2000200E32D322FA0CFE10EB0E0023FA0CFE1B
:102C300041EB0E01CCF1200E03FA0EFE10EB0E005C
:102C4000CCF1200E51F10001B1F5801F32D201EB21
:102C5000045112FA0EF2BDE8104058BF7047401CF4
:102C600038BF5FEA420218BF7047002814BF20F047
:102C7000010041F100014FEA410313F5001F38BF85
:102C80007047A1F1C04100F029BB012A43EB0302C8
:102C9000ACF1200CDCF11F0E32BF4FF0000E23FA16
:102CA0000CF310EB030041EB0451B4EB115FD0D0F7
:102CB000A1EB045101F58011490801EB04515FEAD1
:102CC00030000ED350F1000038BF12FA0EFE08D1CA
:102CD000BDE81040C9E7401C38BF5FEA4202CAD1D4
:102CE000C3E7BDE810404FEA410313F5001F38BFAA
:102CF0007047A1F1C04100F0F1BA9EEA445F08D0EC
:102D000011EA5E0FBDE8104004BF01F00041002051
:102D10007047BDE8104070B500F092FA64FBBE3E0B
:102D20000000E0FF2DE9C04130B4DFF8A8C23CEA62
:102D3000111418BF3CEA131400F0F0801CEA1114BF
:102D400081EA030544EAD57418BF1CEA131500F0A4
:102D5000CB80A4EB050404F17F7404F500344FF03C
:102D6000004545EAC12145EAC32341EA505143EAFF
:102D700052534FEAC0204FEAC222994208BF904204
:102D800000F0A0804FEA13650FF24816765D4FEA17
:102D9000134506FB05F7C7F1807706FB07F74FEAF7
:102DA000D737A7FB03687642A7FB06CEC8F5803865
:102DB00038BFA8F1010807FB08E6A6FB028C4FF01C
:102DC000000EE6FB03CED8F100086FEA0C0C5CF1B4
:102DD000000C6FEA0E0E4EF1004EA6FB0C584FF0A1
:102DE0000007E6FB0E87A1FB08C6A0FB07CE16EB8B
:102DF0000E064FF0000545F10005E1FB076515F1F2
:102E0000E04E7EBFA4F580345FEA46066D4116F1C0
:102E1000800745F100054FEA172747EA05674FEAA3
:102E200015254FEA0666A6F1DE46B6F1805F20D989
:102E3000384605EBC47124F0010C01EB0C11BCF118
:102E4000FE6F02D8F0BCBDE8008124425CBF01F5F2
:102E5000801E9EEAC47F02D4F0BCBDE800812442FB
:102E600000F13980A1F1C041F0BCBDE8004100F0A3
:102E700035BA4FEAD02040EA41504FEAD1214FEA1B
:102E8000D22242EA43524FEAD323A7FB028607FB32
:102E9000036605FB02661EEA0E0F58BFA6EB00563E
:102EA000B6EB00564FEA520E4EEAC37E18EB0E0EFA
:102EB00056EB530EBCD518EB02085E417F1C55F152
:102EC0000005B5E74FF480154FF000074FF00006FE
:102ED0004FF00008ACE701F1C04101F000414FF0B4
:102EE0000000F0BCBDE800810CEA131511EA0C1FCC
:102EF00000D00CE013EA0C1F00F025804FF000001A
:102F000081EA030101F00041F0BCBDE80081F0BCA2
:102F1000BDE8004181EA030100F0E0B9F0BCBDE882
:102F2000004170B500F08CF9097EFC3E00F007B856
:102F30004FF0000081EA030101F00041704781EA8F
:102F4000030100F0CBB9F0BCBDE8004122494FF0CD
:102F500000007047FFFDFBF9F7F5F4F2F0EEEDEB42
:102F6000E9E8E6E4E3E1E0DEDDDBDAD8D7D5D4D387
:102F7000D1D0CFCDCCCBCAC8C7C6C5C4C2C1C0BFD3
:102F8000BEBDBCBBBAB9B8B7B6B5B4B3B2B1B0AFD9
:102F9000AEADACABAAA9A8A8A7A6A5A4A3A3A2A1BD
:102FA000A09F9F9E9D9C9C9B9A9999989797969578
:102FB00095949393929191908F8F8E8E8D8C8C8B14
:102FC0008B8A89898888878786858584848383829C
:102FD000828181800000FF070000F87F4FEA4103F3
:102FE0004FEA5353A3F58063D3F11E03C8BFD3F157
:102FF000210C0CDD4FF0004242EAC12242EA50525D
:1030000032FA03FC8CEAE17CACEBE1707047102BE8
:10301000C4BF0020704703F5787CBCF1FF3F04D0AB
:103020006FF0004282EA2100704770B500F008F9A5
:103030004992248000207047F2E700004FEA1153C4
:10304000A3F58063D3F11E03A8BFD3F1200C08DBE6
:103050004FF0004242EAC12252EA505232FA03F0E3
:10306000704709420BD4102BC4BF0020704703F5F2
:10307000787CBCF1FF3F05D04FF0FF3070474FF038
:103080000000704770B500F0DBF800BF4992248063
:1030900000207047F0E710F0004248BF4042B0FA0D
:1030A00080F310FA03F10AD0C3F11D0303F5806326
:1030B00002EB03524FEA415002EBD12170474FF02F
:1030C00000007047B0FA80F310FA03F10AD0C3F1A0
:1030D0001D0303F580634FEA03524FEA415002EBB0
:1030E000D12170474FF000007047000070B5DFF845
:1030F00048C11CEA111E1EBF1CEA13159EEA0C0FE4
:1031000095EA0C0F00F06F8081EA03044EEAD47E4A
:10311000AE4421EA4C1123EA4C1341F4801143F4EC
:103120008013AEF17F7EA1FB024CA0FB0365361934
:1031300055EB0C05A1FB034C4CF10003A0FB021C5A
:1031400016EB0C06654153F10003094218BF46F027
:10315000010613F4007F0BD14FEA03314FEA05302B
:1031600041EA155140EA165034036FF003020AE0B9
:103170004FEAC3214FEAC52041EA555140EA565073
:10318000F4026FF0020202EB2E4201EB025585EAD7
:10319000CE710AD05FEA440C18BF24F0004450F10D
:1031A000000041F1000120EAD47040F2FE7C62454B
:1031B00000D270BDA84214BF4FF080444FF040448D
:1031C000002E08BF0024BEF1806FA8BFA1F1C0414E
:1031D000BDE8704080F2828001F1C04101F0004101
:1031E0004FF0000070470CEA13159EEA0C0F18BF51
:1031F00095EA0C0F06D081EA030E4FF000000EF0A6
:10320000004170BD00F01CF88900013E00F007B8D5
:1032100000F009B84FEA430C5FEA5C5C08D081EA31
:10322000030100F05BB84FEA410C5FEA5C5CF6D149
:1032300002494FF0000070470000FF070000F87FD0
:103240000EF1020E2EF0030E5EF8046B364205D42A
:10325000012A43EB030515F5001F12D8012841EBA5
:10326000010C1CF5001F0CD80ED14FEAD17C0CEBE1
:103270004C0C0CF1020C15F5001F08BF4CEBD37C75
:1032800004E04FF0080C01E04FEAD37C0CEB4C0556
:1032900026FA05F606F00706B6F1040C06D20EEB88
:1032A000860CBDE870404CF0010C6047DFE80CF084
:1032B000090B02024FF00041A1F500214FF0000080
:1032C00070BD19461046012851EB010418BFD4F512
:1032D000001484BF002001F0004170BD0808A0F573
:1032E00000114FEA3101704710B591EA030F81F0E8
:1032F00000413FF577AC83F0004300F009B80000CF
:1033000010B591EA030F48BF83F000433FF56AAC64
:10331000841A71EB030C07D28CF0004C121943EBAA
:103320000C03001B61EB0C014FEA1154A4EB135C7E
:10333000DFF8A4E11EEA430F18BF9EEA445F00F0E5
:10334000B48021EA045123EA6E035242C3EB6E03B8
:1033500038BF5B1EDCF1200E25D322FA0CFE10EBE9
:103360000E0043FA0CFE41EB0E01CCF1200E03FAE5
:103370000EFE10EB0E00CCF1200E51F1000129D40D
:1033800001EB045112FA0EF2BDE8104058BF70472D
:10339000401C1CBFB2F1004F704700280CBF491CF5
:1033A00020F00100704712EB020E43EB030218BF3E
:1033B0004FF0010E4EEA4202ACF1200CDCF11E0E81
:1033C00056D943FA0CFE10EB0E00CCF11E0E51F153
:1033D000FF31D5D50EF1010E12FA0EFE404141EB40
:1033E000010101EB445C5FEA5C5C10D901EB045124
:1033F00010EBDE7038BFBEF1004FBDE8104018BFC3
:10340000704700280CBF491C20F00100704734D2DF
:103410004FEAD42C24F4006411F500111BD0B1FA4A
:1034200081F20B3AA41AA41ED2F12003914030FA83
:1034300003F31943904001EBCC7101EB0451002CD4
:10344000BDE81040A8BF704701F1C04101F0004144
:103450004FF000007047B0FA80F310FA03F102D188
:10346000BDE810407047E41A173C4805C90AE2E776
:1034700001EB0451BDE81040704749104FEA30009D
:1034800001EB0451BDE8104002E04FF0000170472D
:103490004A0008BF0042F8D0B2F5001F28BF7047AD
:1034A00001F000414FF0000070479EEA445F07D0F2
:1034B00011EA5E0FBDE8104004BF002100207047F4
:1034C000BDE8104070B5FFF7BBFE00BF40DFF63E21
:1034D000104683F0004170470000E0FF43004FEAD0
:1034E000D30C4FEA3C0C43401FBF40070CF1605126
:1034F00013F0FE4F70471CF0006F03D10CF0004139
:10350000002070470CF0004343EA507040EACC00C2
:1035100010B500F00EF800BF000000924FEA000165
:10352000FFF7DCBE4FF00041A1F500214FF0000095
:1035300070470EF1020E2EF0030E5EF8044B24428B
:1035400004D44FEA4102B2F17F4F11D84FEA400351
:10355000B3F17F4F0CD80ED14FEAD07C0CEB4C0C62
:103560000CF1020CB2F17F4F08BF4CEBD17C04E0B0
:103570004FF0080C01E04FEAD17C0CEB4C0324FA2D
:1035800003F404F00704B4F1040C06D20EEB840C2F
:10359000BDE810404CF0010C6047DFE80CF0070874
:1035A00002024FF00040A0F5800010BD0846420026
:1035B00018BFD2F1807288BF00F0004010BDF1EE5C
:1035C000100A4FF6FF71C0F2C03120EA010040F04E
:1035D0004070E1EE100A7047FF2141EAD050C0056B
:1035E00070470000000000004C5555555555A53F4B
:1035F0007751C1166CC156BF9015CB19A001FA3E88
:10360000AD529C804F7E92BEC4B1B4BD9EEE213EB1
:10361000D43888BEE9FAA8BD00004054FB21F93F28
:103620003163621A61B4D03D0000601A61B4D03DCC
:103630007370032E8A19A33B0000002E8A19A33B46
:10364000C14920259A837B3900000000000000005A
:103650006E83F9A22915444ED15727FCC0DD34F5FD
:10366000999562DB4190433CAB6351FE61C5BBDE83
:103670003A6E24B7E0D24D42EA2E49061C92D10997
:103680001CEB1DFE3EA729B1F53582E88444BB2E14
:1036900026709CE9417E5FB439D69139F439538361
:1036A0008B5F849C3B28F9BDFF97F81F0F9805DEC0
:1036B0008B112FEF1F6D0A5ACF7E366DB709CB27BE
:1036C000663F464F2DEA5F9EC7BA27757BF1E5EB53
:1036D000F739073DEA92528AB15FFB6B085D8D1F97
:1036E0004630035600000000A6F810111111813F6A
:1036F000D561C119A0012ABF7DFEB157E31DC73EA8
:10370000EB9C2B8AE6E55ABE7CD5CF5A3AD9E53DEB
:103710000000000000000000010203040607080981
:1037200000000000010203044837000800000020E8
:103730001000000028020008583700081000002080
:10374000B01A00004802000801000000100000004C
:083750000024F4000A0000004F
:04000005080001C529
:00000001FF
